:100000006F00E06D130000001300000013000000FB
:100010001300000013000000130000001300000094
:100020001300000013000000130000001300000084
:08003000130000007300100032
:1000380000000000000000006407000066070000E0
:10004800000000007606000000000000000000002C
:10005800780600007A06000000000000000000009A
:100068007C060000000000007E0600000000000082
:100078008006000082060000840600008606000054
:10008800880600008A0600008C0600008E06000024
:1000980090060000920600009406000096060000F4
:1000A800980600009A0600009C0600009E060000C4
:1000B800A0060000A2060000A4060000A606000094
:1000C800A8060000AA060000AC060000AE06000064
:1000D800B0060000B2060000B4060000B606000034
:1000E800B8060000BA060000BC060000BE06000004
:1000F800C0060000C2060000C4060000C6060000D4
:10010800C8060000CA060000CC060000CE060000A3
:10011800D0060000D2060000D4060000D606000073
:10012800D8060000DA060000DC0600000000000027
:080138000000000000000000BF
:100140003D432A876373C3029377F700BDEFADE5A4
:10015000937606FF3D8ABA960CC34CC30CC74CC7B6
:100160004107E36BD7FE11E28280B306C3408A06E3
:100170009702000096966780A6002307B700A306A3
:10018000B7002306B700A305B7002305B700A304F3
:10019000B7002304B700A303B7002303B700A302EB
:1001A000B7002302B700A301B7002301B700A300E3
:1001B000B7002300B700828093F5F50F9396850072
:1001C000D58D93960501D58D61B79396270097023B
:1001D000000096968682E78086FA9680C1171D8F6A
:1001E0003E96E374C3F8A5B701118545114506CEC7
:1001F00002C202C402C69D2E89472312F1003715A0
:100200000140C1473EC64C008D47130505803EC4E2
:10021000AD2EF240056182804111094506C622C417
:1002200026C241249120716513050520612883A50C
:10023000818009651305C5968D2B09651305C59742
:10024000BD2D371401404D3781441304048013053C
:100250004006352899C401468144894522850121FB
:10026000FDB705468544D5BF83A7818037177A003F
:1002700013070720B3D7E70293F7F70F238BF1801B
:100280001307803EB387E702239AF1808280B7F795
:1002900000E0D8438146799BD8C303D74181330618
:1002A000A70290CBD4CB98431367070198C3984318
:1002B0001367170298C3D843058B75DF9843799B62
:1002C00098C38280797122D42A84116585451105ED
:1002D00006D6692C930700202312F1003715014040
:1002E0008D473EC44C00E147130505803EC6712C86
:1002F00022C837440140B70708000C0813050480E2
:100300003ECC02CA231E01006120130504808545EE
:100310008522B25022544561828001114AC8374972
:10032000014022CC26CA4EC606CEAE893284814414
:100330001309098063CA8400F24022856244D244D2
:100340004249B24905618280930500044A85A12291
:1003500065DDB3879900838507004A858504C2055A
:10036000C1812D22C1BF3707002013070707AA87C5
:10037000084393868182AA9763EAD700B756002084
:100380009386068063E4F6001CC382807D558280DC
:1003900083570501F576FD16C207C183F58F83D615
:1003A0006500797122D426D206D6D58F03D7C50031
:1003B0002318F5008357C500FD769386369FC20744
:1003C000C183F58F83D645002A84AE84D58F83D62A
:1003D0008500D58F83D6A500D58FC207C18323168C
:1003E000F50083574501C207C18393F7F7CFD98F33
:1003F000231AF50068004D28B7470140938707800E
:10040000631DF404E2478356C4006547B387E702DF
:1004100013960601984063540604060793064006A7
:100420000356C40093150601B3D7E70233D7D702AA
:10043000B3F7D702120763D605028E079387270307
:10044000B3D7D7029D8BD98FC207C183B250231473
:10045000F4002254925445618280D2476DB70A0756
:1004600075BF920793872703B3D7D702BD8BE1BF30
:100470008357C500C207C18391C50967D98F231669
:10048000F500828079777D17F98FD5BF93F5F51F39
:100490002312B5008280035505006D8D3335A00011
:1004A000828023ACA1808280371702405C43A14642
:1004B000B18B6388D706B7177A00938707201CC1D2
:1004C000371602405C42370700201307070091836C
:1004D000BD8BBA9783C607001C41B3D7D7005CC158
:1004E0005442A1829D8ABA9683C60600B3D6D7002D
:1004F00014C55442AD829D8A369703470700B3D78F
:10050000E7005CC5584239839376370013874180F2
:100510003697034707001377F70FB3D7E7021CC9D5
:1005200082805C435843C166C983BD8B758F890740
:10053000C5466393D700C94701EF374702400327F9
:100540000780418B09CF37177A001307072021A8AE
:10055000371702405843B7060200758F6DD737171B
:100560003D0013070790B387E70291BF99C537177E
:1005700002401C4F5D8D08CF8280B7170240984F14
:100580001345F5FF798D88CF82809C4513F70701CD
:1005900013F8F70001C7D8413368E8003717014066
:1005A0006317E50003D7050035832390E50083D565
:1005B000050013F7F50F39C318418146854E3D4FAD
:1005C000930F800293028004214E3396DE00B3F82D
:1005D000C500631116039398260033131F011343BC
:1005E000F3FF3377E300B318180133E7E8006390B3
:1005F000F70750C98506E39AC6FD18C11307F00F27
:100600006376B70454410146854E3D4F930F8002F7
:1006100093028004214E130786003397EE00B3F84F
:10062000E500631117039318260033131F011343CA
:10063000F3FFB376D300B3181801B3E6D800639C78
:10064000F70158C90506E318C6FD54C18280E3933B
:1006500057FA10C945B7E39757FE18C9E5B7B7175A
:1006600001406313F500B58119C20CC982804CC9E1
:10067000828001A001A001A001A001A001A001A011
:1006800001A001A001A001A001A001A001A001A062
:1006900001A001A001A001A001A001A001A001A052
:1006A00001A001A001A001A001A001A001A001A042
:1006B00001A001A001A001A001A001A001A001A032
:1006C00001A001A001A001A001A001A001A001A022
:1006D00001A001A001A001A001A001A001A097011B
:1006E000002093812119175100201301A1911715A2
:1006F000000013056539970500209385A5901386A2
:10070000418163FAC5008322050023A0550011052D
:100710009105E3EAC5FE1385418193858182637764
:10072000B500232005001105E36DB5FEFD42739071
:1007300002BC8D42739042809302800873A0023005
:10074000970200009382828F93E2320073905230BE
:10075000EF00800197020000938242AC7390123444
:1007600073002030828001A0B71702409843B7067B
:10077000FFF81367170098C3D843758FD8C3984301
:10078000B706F7FEFD16758F98C39843B706FCFFB2
:10079000FD16758F98C3D843B70681FFFD16758F78
:1007A000D8C337079F0098C782805D7122D406D6D0
:1007B0002A842EDA32DC36DEBAC0BEC2C2C4C6C655
:1007C00003A5C18011C51C4D81E72AC615233245FA
:1007D0000C455418228636CEEF003015B250225404
:1007E00061618280011126CA4AC806CE22CC4EC65B
:1007F00052C4AA842E8901C51C4D91E3D5299C4C75
:10080000804499E32685ED21971700009387871A86
:10081000631CF402C0408357C400A18BB1C71C48BD
:10082000A1C7FD59294A1C4483450900FD17B1E9B8
:100830001CC463DE07062286A94526856920FD576C
:100840006308F502294535A097170000938787189C
:100850006314F4008044C1B797170000938787138F
:10086000E31BF4FAC04445BFA2852685292A55D941
:100870007D55F2406244D2444249B249224A056160
:1008800082801CC4050963D70700184C63CBE700BE
:10089000638945011C401387170018C02380B700E7
:1008A00059B7228626850520E31F35F7D1B71C40AE
:1008B0001387170018C029472380E70061B7AA856E
:1008C00003A5C18005B7011122CC26CA4AC806CEAD
:1008D0004EC6AA842E89328401C51C4D91E3092994
:1008E000971700009387070D6319F406C0401C4C4E
:1008F0001CC48357C400A18BC9C31C48BDCF1C486E
:1009000008409379F90F1379F90F1D8D5C48634600
:10091000F500A2852685752C2DE51C440505FD17DF
:100920001CC41C401387170018C0238037015C4883
:100930006389A7008357C400858B81CBA9476316C1
:10094000F900A285268571240DEDF2406244D2445F
:10095000B2494A8542490561828097170000938712
:1009600067076314F400804459B797170000938712
:100970006702E31EF4F6C0449DBFA28526852120B0
:100980003DDD7D59D9B7411122C426C24AC006C6F1
:1009900083A4C1802A892E8489C49C4C99E326852E
:1009A000812E971700009387E7006317F402C04079
:1009B0008317C4001397070193F687004183ADEABC
:1009C0009376070195EA25472320E90093E707047A
:1009D0002316F4007D5571A897170000938787FFB1
:1009E0006314F4008044E9B797170000938787FAEF
:1009F000E310F4FCC0446DBF118B0DC74C5889C97E
:100A0000930744046384F5004A859923232A04024A
:100A10008357C4002322040093F7B7FD2316F40084
:100A20001C481CC08357C40093E787002316F400BA
:100A30001C4881EF8357C4001307002093F7072851
:100A40006385E700A2854A85B5218317C400139703
:100A5000070193F6170041839DC2544823240400E4
:100A6000B306D04014CC1448014581E6137707083B
:100A700031FFB24022449244024941018280937680
:100A80002700014691E2504810C4F1BF83D7C5004A
:100A9000011122CC26CA06CE4AC84EC613F78700DB
:100AA000AA842E8475E3D8416347E000B8416344CB
:100AB000E000014575A858546DDF856603A9040060
:100AC000F58F23A00400A5CF68488357C400918BFD
:100AD00099C75C401D8D5C5899C33C401D8D5C548A
:100AE0000C502A86814626858297FD570357C400FD
:100AF000631DF5009440F54763E3D708B70740202E
:100B00008507B3D7D700858BBDCB1C4823220400B3
:100B10001CC085677D8F19C7FD576314F5009C4085
:100B200091E368C84C5823A02401C1D5930744041D
:100B30006384F50026852929232A04029DBF0C50D1
:100B40008546014626850297FD57E310F5F89C403F
:100B5000ADDF75476385E70059476395E70023A03C
:100B6000240181BF8357C40093E707042316F400D0
:100B7000F2406244D2444249B2490561828013671F
:100B800007042316E400EDB783A90501E38309F206
:100B900003A905008D8B23A0350133093941014795
:100BA00091E3D84918C4E35620F11C540C50CA866E
:100BB0004E8626858297634AA0008357C4007D55E0
:100BC00093E707042316F40065B7AA993309A940EF
:100BD000D9BF9C49B9CF011122CC06CE2A8411C5B8
:100BE0001C4D81E72EC62922B24597170000938736
:100BF00067DC639BF5004C408397C50095C7228551
:100C00006244F240056159B597170000938787DC6D
:100C10006394F5000C44CDB797170000938787D7EE
:100C2000E39CF5FC4C44C9BFF240624401450561B8
:100C3000828001458280411122C406C62A8423167F
:100C4000B5002317C5002320050023220500232417
:100C500005002322050623280500232A0500232C4E
:100C60000500214681451305C505EFF06FCD9707B7
:100C70000000938787775CD0970700009387E77918
:100C80001CD4970700009387277E5CD49717000039
:100C90009387E780B24000D01CD822444101828073
:100CA00097050000938525F3A1A2411126C21306E2
:100CB00080069384F5FFB384C4024AC02E8922C4FF
:100CC00006C69385440725262A8401CD23200500E6
:100CD00023222501310508C4138684068145EFF0DF
:100CE0002FC6B240228522449244024941018280AB
:100CF0001C4DADE3411122C406C69707000093873F
:100D000067FA1CD52324050423260504232805049B
:100D100083A701812A846314F50085471CCD2285B1
:100D20001D2848C02285052808C422852D2048C4D6
:100D3000484001469145013708440546A545E53D33
:100D400048440946C945C53D8547B2401CCC2244AC
:100D5000410182808280411126C283A401819C4C82
:100D60004AC006C622C42A8999E32685513793844E
:100D700084048044DC40FD1763D607009C40B9CF53
:100D80008440C5BF0317C40039E7C1778507232214
:100D900004062320040023220400232404005CC44E
:100DA00023280400232A0400232C04002146814523
:100DB0001305C405EFF0CFB8232A0402232C040244
:100DC0002324040423260404B240228522449244AE
:100DD0000249410182801304840671BF91454A850E
:100DE000E93588C02A8449FDB1472320F900E9BFCD
:100DF000797122D44AD04ECE52CC5AC85EC606D69D
:100E000026D256CA2A892E8A130485048149054BA5
:100E1000FD5B0444832A4400FD1A63D00A020040AB
:100E20006DF8B250225492540259624AD24A424B4F
:100E3000B24B4E85F2494561828083D7C400637B03
:100E4000FB008397E40063877701A6854A85029AB1
:100E5000B3E9A90093848406C1B75971CAD02E8919
:100E60008395E500A2D4A6D286D63284B68463DC0C
:100E700005008317C90023A0040093F707088DE33A
:100E80009307004005A03000AD25E34405FE32473E
:100E9000BD67F98F7977BA9793B717009CC0CDB724
:100EA00093070004B6501CC02654965406590145B9
:100EB0006561828083D7C500011122CC06CE26CA87
:100EC0004AC8898B2E8489CF930774041CC01CC820
:100ED00085475CC8F2406244D24442490561828041
:100EE000740030002A89953FA245AA844A850122D0
:100EF00001ED8317C40013F7072069FFF19B93E707
:100F000027002316F400C9B797070000938787D9F5
:100F10002324F9028357C40008C008C893E70708D0
:100F20002316F400A2475CC8B24789CF8315E400BA
:100F30004A85E52301C98357C400F19B93E7170055
:100F40002316F4000355C400C98C2316940059B726
:100F5000D1CD83A7C5FF011122CC06CE1384C5FFD6
:100F600063D307003E942AC6312D1387C1811C43E9
:100F7000324581EB2322040000C36244F240056144
:100F800019A5637DF4001040B306C4006396D70032
:100F90009443DC43B29614C05CC0F9BF3E87DC4387
:100FA00099C3E37DF4FE14433306D700631F860024
:100FB0001040B29614C33306D700E390C7FC9043A9
:100FC000DC43B29614C35CC34DBF6375C400B14724
:100FD0001CC165B71040B306C4006396D7009443A4
:100FE000DC43B29614C05CC040C341BF8280011193
:100FF00026CA93843500F1984AC806CE22CC4EC644
:10100000A104B1472A8963F0F404B14463EFB40248
:101010004A858D2B9386C18198423A8431E01384AE
:1010200001821C4089E781454A85512E08C0A6856A
:101030004A857126FD5963183507B1472320F90009
:101040004A85912331A0E3D304FCB1472320F90062
:101050000145F2406244D2444249B249056182806E
:101060001C40858F63CE07022D466376F6001CC0B8
:101070003E9404C029A05C40631287029CC24A854A
:1010800019231305B4009307440061993307F54011
:10109000E301F5FC3A94898F1CC065BF5CC3C5B7FA
:1010A00022874040A5BF130435007198E30385FCF7
:1010B000B305A4404A852126E31D35FBBDBF1C4670
:1010C000FD171CC663DA0700184E63C5E700A94781
:1010D0006394F5006FF02FFF1C422E8513871700D5
:1010E00018C22380B7008280011122CC26CA4AC8C8
:1010F0004EC652C406CE2A89AE893284B304D600C5
:101100007D5A63149400014509A8834504004E8666
:101110004A8575370504E31645FFF2406244D24420
:101120004249B249224A05618280357122CD26CBDF
:101130004AC94EC706CF52C556C35AC1DEDEE2DCED
:10114000E6DAAA89AE843289368401C51C4D91E362
:101150004536971700009387E785639BF40C83A4BB
:10116000490083D7C400A18BF5C79C48E5C7930706
:101170000002A304F1029307000302D22305F10247
:1011800022C6930B5002971A0000938AAA86054C38
:10119000294B4A848347040099C36390770FB30CAB
:1011A0002441630D2401E6864A86A6854E852D3F9F
:1011B000FD576304F51E9257E6973ED2834704001D
:1011C000638D071CFD571309140002C802CE3ECAE6
:1011D00002CCA309010482D4834509001546568533
:1011E0006926C2471304190059E913F7070109C713
:1011F00013070002A309E10413F7870009C71307C7
:10120000B002A309E104834609001307A00263802A
:10121000E608F2474A8481462546034704009305C1
:101220001400130707FD6379E60AB5CA3ECE85A808
:10123000970700009387077A6395F40083A48900D9
:101240000DB7970700009387E774E39CF4F083A43D
:10125000C90001BFA6854E85EFF0EFF209D97D5593
:10126000FA406A44DA444A49BA492A4A9A4A0A4B35
:10127000F65B665CD65C0D618280050421BF330598
:1012800055413315AC00C98F3EC82289B1B73247EA
:1012900093064700184336C6634907023ACE034710
:1012A00004009307E002631FF70403471400930749
:1012B000A002631BF702B2470904138747009C434F
:1012C0003AC663C107023ECA35A83307E04093E738
:1012D00027003ACE3EC8E1B7B38767032E84854620
:1012E000BA9725BFFD57C5B7050402CA8146814795
:1012F00025460347040093051400130707FD637494
:10130000E606F1F2834504000D46170500001305BB
:10131000E56EA12C11CD970700009387276E1D8DD8
:1013200093070004B397A700424505045D8D2AC8C2
:10133000834504001946170500001305656C130961
:1013400014002304B10215242DC19307000095E772
:101350004247B2471377071009CF91073EC692570D
:10136000D2973ED23DB5B38767032E848546BA97A0
:1013700049B79D07E19BA107D5B778009706000004
:101380009386C6D626860C084E8597000000E70097
:101390000000FD572A8AE314F5FC83D7C40093F7B5
:1013A0000704E39E07EA125565BD78009706000022
:1013B0009386C6D326860C084E85E92CD9BF4111E9
:1013C00022C42A842E8523A2018206C6EFE0BFF93B
:1013D000FD576316F50083A7418291C31CC0B2403C
:1013E000224441018280411122C42E848395E5006C
:1013F00006C6092B634905007C48AA977CC8B24001
:101400002244410182808357C4007D777D17F98F84
:101410002316F400EDB783D7C500011122CC26CAEC
:101420004AC84EC606CE93F70710AA842E84328986
:10143000B68991C78395E5008946014611228357F5
:10144000C4007D777D17F98F8315E4002316F4001F
:101450006244F240CE864A86B24942492685D24449
:1014600005613DA8411122C42E848395E50006C67E
:10147000C128FD570357C400631BF500FD77FD1716
:10148000F98F2316F400B24022444101828085671F
:10149000D98F2316F40068C8FDB78395E5003DA0F9
:1014A000411122C42A842E85B285368623A2018268
:1014B00006C6EFE09FE6FD576316F50083A741825D
:1014C00091C31CC0B240224441018280411122C418
:1014D0002A842E8523A2018206C69129FD57631610
:1014E000F50083A7418291C31CC0B2402244410150
:1014F0008280411122C42A842E85B28523A20182D2
:1015000006C62529FD576316F50083A7418291C3BE
:101510001CC0B240224441018280411122C42A846D
:101520002E8523A2018206C63929FD576316F500D0
:1015300083A7418291C31CC0B240224441018280F2
:10154000411122C42A842E85B285368623A20182C7
:1015500006C60121FD576316F50083A7418291C39A
:101560001CC0B24022444101828093F5F50F2A96B7
:101570006314C5000145828083470500E38DB7FEF3
:101580000505FDB782808280797152CC9C493A8AE8
:10159000984522D426D24ECE56CA06D64AD05AC82C
:1015A0005EC6AA892E84B284B68A63D3E700BA875E
:1015B0009CC00347340419C385079CC01C4093F7A3
:1015C000070281C79C4089079CC003290400137946
:1015D0006900631A0900130B9401FD5B5C44984099
:1015E000998F634CF90483473404B336F0001C40F0
:1015F00093F70702A5EB13063404D6854E85029AAD
:10160000FD576303F5041C4011469840998B5444E0
:1016100081446397C700B384E64063D304008144E8
:101620001C4418486354F700998FBE94014969041B
:101630007D5B63982405014509A885465A86D685B1
:101640004E85029A631E75017D55B2502254925404
:101650000259F249624AD24A424BB24B45618280FA
:101660000509ADBF3307D40013060003A301C70467
:101670000347540493871600A2978906A381E704C1
:101680009DBF85462286D6854E85029AE30E65FB70
:10169000050945B7797122D426D24AD04ECE06D656
:1016A00052CC56CA5AC803C8850193078007AA843A
:1016B0002E843289B68963EE07019307200693864C
:1016C000350463ED07016305081C93078005630A71
:1016D000F812930A24042301040515A89307D8F9E6
:1016E00093F7F70F5546E366F6FE1706000013065C
:1016F00026348A07B2979C43B29782871C43938A09
:101700002504938647009C4314C32381F504854731
:101710005DA29C41084313F60708930545000DC2DE
:101720001C410CC363D807001307D002B307F04075
:10173000A301E404170600001306062D2948A1A002
:1017400013F607041C410CC371DEC207C187D9BF61
:1017500090411C43137506089385470001C50CC3CF
:101760009C4339A0137606040CC37DDA83D70700A7
:101770001307F00617060000130606296304E80E97
:101780002948A3010404584018C4634507000C40CD
:10179000ED990CC099E3B68A19CFB68A33F70703DF
:1017A000FD1A3297034707002380EA003E87B3D72C
:1017B0000703E37507FFA147631EF8001C40858BF4
:1017C00091CB58401C4863C7E70093070003A38FE1
:1017D000FAFEFD1AB386564114C84E87CA867000B9
:1017E000A285268555337D5A631B450D7D55B25024
:1017F000225492540259F249624AD24A424B4561FC
:101800008280A3820505170600001306E61F0C4020
:10181000084313F805081C411105630D080208C3AD
:1018200013F7150001C793E505020CC04148B1FB51
:1018300018401377F7FD18C0A9B79C4193E707023A
:101840009CC193078007A302F40417060000130647
:10185000E61C75BF13F8050408C3E30308FCC207C0
:10186000C1837DBF214831BF90411C43CC491378CF
:101870000608138547006306080008C39C438CC311
:1018800001A808C3137606049C4375DA2390B700B9
:1018900023280400B68A91B71C43D0418145938622
:1018A000470014C383AA07005685C13101C533051B
:1018B000554148C05C401CC8A301040439BF14480A
:1018C0005686CA8526858299E30245F31C40898B9A
:1018D0008DE7B2474844E35CF5F03E8509BF854695
:1018E0005686CA8526858299E30265F1050A5C441D
:1018F0003247998FE345FAFEE9BF014A930A940102
:101900007D5BF5B7411122C42A842E85B2853686C7
:1019100023A2018206C6A120FD576316F50083A706
:10192000418291C31CC0B24022444101828093078E
:10193000800523A2F1827D5582809307800523A232
:10194000F1827D5582809307800523A2F1820145B3
:1019500082809307800523A2F1827D5582809307C0
:10196000800523A2F1827D55828000005379737433
:10197000656D436C6B3A256C640D0A004750494F06
:1019800020546F67676C6520544553540D00000068
:101990000000000000000000000000000000000047
:1019A0000000000000000000000000000000000037
:1019B0000000000000000000000000000000000027
:1019C0000000000000000000000000000000000017
:1019D0000000000000000000000000000000000007
:1019E00000000000000000000000000000000000F7
:1019F000232D302B20000000686C4C006566674585
:101A000046470000303132333435363738394142B9
:101A10004344454600000000303132333435363718
:101A2000383961626364656600000000D0FCFFFF26
:101A3000E6FCFFFFA6FCFFFFA6FCFFFFA6FCFFFFE6
:101A4000A6FCFFFFE6FCFFFFA6FCFFFFA6FCFFFFD6
:101A5000A6FCFFFFA6FCFFFF3CFEFFFF24FDFFFFEF
:101A60000EFEFFFFA6FCFFFFA6FCFFFF6CFEFFFFC4
:101A7000A6FCFFFF24FDFFFFA6FCFFFFA6FCFFFF67
:041A800016FEFFFF50
:101A84000000000001020304010203040607080920
:101A940000000000B0190000D019000090190000E7
:101AA4000000000000000000000000000000000032
:101AB4000000000000000000000000000000000022
:101AC4000000000000000000000000000000000012
:101AD4000000000000000000000000000000000002
:101AE40000000000000000000000000000000000F2
:101AF400980000200204060800127A00100000205A
:041B040010000020AD
:00000001FF
